{
  "_format": "hh-sol-artifact-1",
  "contractName": "YSFSTAKING",
  "sourceName": "contracts/NFTSTAKING.sol",
  "abi": [
    {
      "inputs": [
        {
          "internalType": "contract IERC721",
          "name": "_nftCollection",
          "type": "address"
        },
        {
          "internalType": "contract IERC20",
          "name": "_rewardsToken",
          "type": "address"
        }
      ],
      "stateMutability": "nonpayable",
      "type": "constructor"
    },
    {
      "anonymous": false,
      "inputs": [
        {
          "indexed": false,
          "internalType": "uint256",
          "name": "tokenId",
          "type": "uint256"
        },
        {
          "indexed": false,
          "internalType": "uint256",
          "name": "date",
          "type": "uint256"
        },
        {
          "indexed": false,
          "internalType": "address",
          "name": "staker",
          "type": "address"
        }
      ],
      "name": "nftClaimed",
      "type": "event"
    },
    {
      "anonymous": false,
      "inputs": [
        {
          "indexed": false,
          "internalType": "uint256",
          "name": "tokenId",
          "type": "uint256"
        },
        {
          "indexed": false,
          "internalType": "address",
          "name": "staker",
          "type": "address"
        },
        {
          "indexed": false,
          "internalType": "uint256",
          "name": "amountStaked",
          "type": "uint256"
        }
      ],
      "name": "nftStaked",
      "type": "event"
    },
    {
      "anonymous": false,
      "inputs": [
        {
          "indexed": false,
          "internalType": "uint256",
          "name": "tokenId",
          "type": "uint256"
        },
        {
          "indexed": false,
          "internalType": "address",
          "name": "staker",
          "type": "address"
        }
      ],
      "name": "nftWithdraw",
      "type": "event"
    },
    {
      "anonymous": false,
      "inputs": [
        {
          "indexed": false,
          "internalType": "uint256",
          "name": "amount",
          "type": "uint256"
        },
        {
          "indexed": false,
          "internalType": "address",
          "name": "staker",
          "type": "address"
        }
      ],
      "name": "tokenClaimed",
      "type": "event"
    },
    {
      "inputs": [
        {
          "internalType": "address",
          "name": "_staker",
          "type": "address"
        }
      ],
      "name": "availableRewards",
      "outputs": [
        {
          "internalType": "uint256",
          "name": "",
          "type": "uint256"
        }
      ],
      "stateMutability": "view",
      "type": "function"
    },
    {
      "inputs": [
        {
          "internalType": "uint256",
          "name": "_tokenId",
          "type": "uint256"
        }
      ],
      "name": "claimNft",
      "outputs": [],
      "stateMutability": "nonpayable",
      "type": "function"
    },
    {
      "inputs": [],
      "name": "claimRewards",
      "outputs": [],
      "stateMutability": "nonpayable",
      "type": "function"
    },
    {
      "inputs": [
        {
          "internalType": "uint256",
          "name": "_tokenId",
          "type": "uint256"
        }
      ],
      "name": "getClaimDate",
      "outputs": [
        {
          "internalType": "uint256",
          "name": "",
          "type": "uint256"
        }
      ],
      "stateMutability": "view",
      "type": "function"
    },
    {
      "inputs": [
        {
          "internalType": "address",
          "name": "_user",
          "type": "address"
        }
      ],
      "name": "getStakedTokens",
      "outputs": [
        {
          "components": [
            {
              "internalType": "address",
              "name": "staker",
              "type": "address"
            },
            {
              "internalType": "uint256",
              "name": "tokenId",
              "type": "uint256"
            },
            {
              "internalType": "uint256",
              "name": "claimDate",
              "type": "uint256"
            },
            {
              "internalType": "bool",
              "name": "isClaimed",
              "type": "bool"
            }
          ],
          "internalType": "struct YSFSTAKING.StakedToken[]",
          "name": "",
          "type": "tuple[]"
        }
      ],
      "stateMutability": "view",
      "type": "function"
    },
    {
      "inputs": [],
      "name": "nftCollection",
      "outputs": [
        {
          "internalType": "contract IERC721",
          "name": "",
          "type": "address"
        }
      ],
      "stateMutability": "view",
      "type": "function"
    },
    {
      "inputs": [],
      "name": "rewardsToken",
      "outputs": [
        {
          "internalType": "contract IERC20",
          "name": "",
          "type": "address"
        }
      ],
      "stateMutability": "view",
      "type": "function"
    },
    {
      "inputs": [
        {
          "internalType": "uint256",
          "name": "_tokenId",
          "type": "uint256"
        }
      ],
      "name": "stake",
      "outputs": [],
      "stateMutability": "nonpayable",
      "type": "function"
    },
    {
      "inputs": [
        {
          "internalType": "uint256",
          "name": "",
          "type": "uint256"
        }
      ],
      "name": "stakerAddress",
      "outputs": [
        {
          "internalType": "address",
          "name": "",
          "type": "address"
        }
      ],
      "stateMutability": "view",
      "type": "function"
    },
    {
      "inputs": [
        {
          "internalType": "address",
          "name": "",
          "type": "address"
        }
      ],
      "name": "stakers",
      "outputs": [
        {
          "internalType": "uint256",
          "name": "amountStaked",
          "type": "uint256"
        },
        {
          "internalType": "uint256",
          "name": "timeOfLastUpdate",
          "type": "uint256"
        },
        {
          "internalType": "uint256",
          "name": "unclaimedRewards",
          "type": "uint256"
        }
      ],
      "stateMutability": "view",
      "type": "function"
    },
    {
      "inputs": [
        {
          "internalType": "uint256",
          "name": "_tokenId",
          "type": "uint256"
        }
      ],
      "name": "withdraw",
      "outputs": [],
      "stateMutability": "nonpayable",
      "type": "function"
    }
  ],
  "bytecode": "0x60c06040526604ef2fe4dace446001553480156200001c57600080fd5b5060405162002e8438038062002e8483398181016040528101906200004291906200017d565b60016000819055508173ffffffffffffffffffffffffffffffffffffffff1660a08173ffffffffffffffffffffffffffffffffffffffff16815250508073ffffffffffffffffffffffffffffffffffffffff1660808173ffffffffffffffffffffffffffffffffffffffff16815250505050620001c4565b600080fd5b600073ffffffffffffffffffffffffffffffffffffffff82169050919050565b6000620000ec82620000bf565b9050919050565b60006200010082620000df565b9050919050565b6200011281620000f3565b81146200011e57600080fd5b50565b600081519050620001328162000107565b92915050565b60006200014582620000df565b9050919050565b620001578162000138565b81146200016357600080fd5b50565b60008151905062000177816200014c565b92915050565b60008060408385031215620001975762000196620000ba565b5b6000620001a78582860162000121565b9250506020620001ba8582860162000166565b9150509250929050565b60805160a051612c7e62000206600039600081816107ee0152818161123d0152818161165b015261174b015260008181610e300152611a900152612c7e6000f3fe608060405234801561001057600080fd5b50600436106100a95760003560e01c806380d08f111161007157806380d08f111461013e5780639168ae721461016e57806394067045146101a0578063a694fc3a146101d0578063d1af0c7d146101ec578063f854a27f1461020a576100a9565b80632e1a7d4d146100ae5780632ec09d39146100ca578063372500ab146100e657806363c28db1146100f05780636588103b14610120575b600080fd5b6100c860048036038101906100c39190611fc2565b61023a565b005b6100e460048036038101906100df9190611fc2565b610908565b005b6100ee610cfd565b005b61010a6004803603810190610105919061204d565b610eb0565b60405161011791906121b7565b60405180910390f35b61012861123b565b6040516101359190612238565b60405180910390f35b61015860048036038101906101539190611fc2565b61125f565b6040516101659190612262565b60405180910390f35b6101886004803603810190610183919061204d565b61152a565b6040516101979392919061227d565b60405180910390f35b6101ba60048036038101906101b59190611fc2565b611554565b6040516101c791906122c3565b60405180910390f35b6101ea60048036038101906101e59190611fc2565b611587565b005b6101f4611a8e565b60405161020191906122ff565b60405180910390f35b610224600480360381019061021f919061204d565b611ab2565b6040516102319190612262565b60405180910390f35b610242611b16565b6000600260003373ffffffffffffffffffffffffffffffffffffffff1673ffffffffffffffffffffffffffffffffffffffff16815260200190815260200160002060010154116102c7576040517f08c379a00000000000000000000000000000000000000000000000000000000081526004016102be90612377565b60405180910390fd5b3373ffffffffffffffffffffffffffffffffffffffff166003600083815260200190815260200160002060009054906101000a900473ffffffffffffffffffffffffffffffffffffffff1673ffffffffffffffffffffffffffffffffffffffff1614610368576040517f08c379a000000000000000000000000000000000000000000000000000000000815260040161035f906123e3565b60405180910390fd5b6000805b600260003373ffffffffffffffffffffffffffffffffffffffff1673ffffffffffffffffffffffffffffffffffffffff168152602001908152602001600020600001805490508110156104ff5782600260003373ffffffffffffffffffffffffffffffffffffffff1673ffffffffffffffffffffffffffffffffffffffff168152602001908152602001600020600001828154811061040e5761040d612403565b5b9060005260206000209060040201600101541480156104df5750600073ffffffffffffffffffffffffffffffffffffffff16600260003373ffffffffffffffffffffffffffffffffffffffff1673ffffffffffffffffffffffffffffffffffffffff168152602001908152602001600020600001828154811061049457610493612403565b5b906000526020600020906004020160000160009054906101000a900473ffffffffffffffffffffffffffffffffffffffff1673ffffffffffffffffffffffffffffffffffffffff1614155b156104ec578091506104ff565b80806104f790612461565b91505061036c565b506078600260003373ffffffffffffffffffffffffffffffffffffffff1673ffffffffffffffffffffffffffffffffffffffff168152602001908152602001600020600001828154811061055657610555612403565b5b9060005260206000209060040201600201544261057391906124a9565b101580156105f7575060011515600260003373ffffffffffffffffffffffffffffffffffffffff1673ffffffffffffffffffffffffffffffffffffffff16815260200190815260200160002060000182815481106105d4576105d3612403565b5b906000526020600020906004020160030160009054906101000a900460ff161515145b610636576040517f08c379a000000000000000000000000000000000000000000000000000000000815260040161062d90612529565b60405180910390fd5b600061064133611b65565b905080600260003373ffffffffffffffffffffffffffffffffffffffff1673ffffffffffffffffffffffffffffffffffffffff16815260200190815260200160002060030160008282546106959190612549565b925050819055506000600260003373ffffffffffffffffffffffffffffffffffffffff1673ffffffffffffffffffffffffffffffffffffffff16815260200190815260200160002060000183815481106106f2576106f1612403565b5b906000526020600020906004020160000160006101000a81548173ffffffffffffffffffffffffffffffffffffffff021916908373ffffffffffffffffffffffffffffffffffffffff160217905550600260003373ffffffffffffffffffffffffffffffffffffffff1673ffffffffffffffffffffffffffffffffffffffff16815260200190815260200160002060010160008154809291906107949061257d565b919050555060006003600085815260200190815260200160002060006101000a81548173ffffffffffffffffffffffffffffffffffffffff021916908373ffffffffffffffffffffffffffffffffffffffff1602179055507f000000000000000000000000000000000000000000000000000000000000000073ffffffffffffffffffffffffffffffffffffffff166323b872dd3033866040518463ffffffff1660e01b8152600401610849939291906125a6565b600060405180830381600087803b15801561086357600080fd5b505af1158015610877573d6000803e3d6000fd5b5050505042600260003373ffffffffffffffffffffffffffffffffffffffff1673ffffffffffffffffffffffffffffffffffffffff168152602001908152602001600020600201819055507f103e1951f1203c2c11b4292e39d33c3743b39889b290b9687810e4c5f062f19083336040516108f39291906125dd565b60405180910390a15050610905611c23565b50565b610910611b16565b6000600260003373ffffffffffffffffffffffffffffffffffffffff1673ffffffffffffffffffffffffffffffffffffffff1681526020019081526020016000206001015411610995576040517f08c379a000000000000000000000000000000000000000000000000000000000815260040161098c90612377565b60405180910390fd5b3373ffffffffffffffffffffffffffffffffffffffff166003600083815260200190815260200160002060009054906101000a900473ffffffffffffffffffffffffffffffffffffffff1673ffffffffffffffffffffffffffffffffffffffff1614610a36576040517f08c379a0000000000000000000000000000000000000000000000000000000008152600401610a2d906123e3565b60405180910390fd5b6000805b600260003373ffffffffffffffffffffffffffffffffffffffff1673ffffffffffffffffffffffffffffffffffffffff16815260200190815260200160002060000180549050811015610bcd5782600260003373ffffffffffffffffffffffffffffffffffffffff1673ffffffffffffffffffffffffffffffffffffffff1681526020019081526020016000206000018281548110610adc57610adb612403565b5b906000526020600020906004020160010154148015610bad5750600073ffffffffffffffffffffffffffffffffffffffff16600260003373ffffffffffffffffffffffffffffffffffffffff1673ffffffffffffffffffffffffffffffffffffffff1681526020019081526020016000206000018281548110610b6257610b61612403565b5b906000526020600020906004020160000160009054906101000a900473ffffffffffffffffffffffffffffffffffffffff1673ffffffffffffffffffffffffffffffffffffffff1614155b15610bba57809150610bcd565b8080610bc590612461565b915050610a3a565b5042600260003373ffffffffffffffffffffffffffffffffffffffff1673ffffffffffffffffffffffffffffffffffffffff1681526020019081526020016000206000018281548110610c2357610c22612403565b5b9060005260206000209060040201600201819055506001600260003373ffffffffffffffffffffffffffffffffffffffff1673ffffffffffffffffffffffffffffffffffffffff1681526020019081526020016000206000018281548110610c8e57610c8d612403565b5b906000526020600020906004020160030160006101000a81548160ff0219169083151502179055507f368dea72c27f21a77e14a7056ef3ab9b0db6576950c96031bca8a8f265e5586a824233604051610ce993929190612606565b60405180910390a150610cfa611c23565b50565b6000600260003373ffffffffffffffffffffffffffffffffffffffff1673ffffffffffffffffffffffffffffffffffffffff16815260200190815260200160002060030154610d4b33611b65565b610d559190612549565b905060008111610d9a576040517f08c379a0000000000000000000000000000000000000000000000000000000008152600401610d9190612689565b60405180910390fd5b42600260003373ffffffffffffffffffffffffffffffffffffffff1673ffffffffffffffffffffffffffffffffffffffff168152602001908152602001600020600201819055506000600260003373ffffffffffffffffffffffffffffffffffffffff1673ffffffffffffffffffffffffffffffffffffffff16815260200190815260200160002060030181905550610e7433827f000000000000000000000000000000000000000000000000000000000000000073ffffffffffffffffffffffffffffffffffffffff16611c2d9092919063ffffffff16565b7f8bb77dd5e141eb3f86aeb15831be9830ce84c395d2bb27c83c56f4b52a6ae0c58133604051610ea59291906125dd565b60405180910390a150565b60606000600260008473ffffffffffffffffffffffffffffffffffffffff1673ffffffffffffffffffffffffffffffffffffffff1681526020019081526020016000206001015411156111de576000600260008473ffffffffffffffffffffffffffffffffffffffff1673ffffffffffffffffffffffffffffffffffffffff1681526020019081526020016000206001015467ffffffffffffffff811115610f5b57610f5a6126a9565b5b604051908082528060200260200182016040528015610f9457816020015b610f81611f47565b815260200190600190039081610f795790505b5090506000805b600260008673ffffffffffffffffffffffffffffffffffffffff1673ffffffffffffffffffffffffffffffffffffffff168152602001908152602001600020600001805490508110156111d357600073ffffffffffffffffffffffffffffffffffffffff16600260008773ffffffffffffffffffffffffffffffffffffffff1673ffffffffffffffffffffffffffffffffffffffff168152602001908152602001600020600001828154811061105457611053612403565b5b906000526020600020906004020160000160009054906101000a900473ffffffffffffffffffffffffffffffffffffffff1673ffffffffffffffffffffffffffffffffffffffff16146111c057600260008673ffffffffffffffffffffffffffffffffffffffff1673ffffffffffffffffffffffffffffffffffffffff16815260200190815260200160002060000181815481106110f5576110f4612403565b5b90600052602060002090600402016040518060800160405290816000820160009054906101000a900473ffffffffffffffffffffffffffffffffffffffff1673ffffffffffffffffffffffffffffffffffffffff1673ffffffffffffffffffffffffffffffffffffffff16815260200160018201548152602001600282015481526020016003820160009054906101000a900460ff1615151515815250508383815181106111a6576111a5612403565b5b602002602001018190525081806111bc90612461565b9250505b80806111cb90612461565b915050610f9b565b508192505050611236565b600067ffffffffffffffff8111156111f9576111f86126a9565b5b60405190808252806020026020018201604052801561123257816020015b61121f611f47565b8152602001906001900390816112175790505b5090505b919050565b7f000000000000000000000000000000000000000000000000000000000000000081565b6000806000905060005b600260003373ffffffffffffffffffffffffffffffffffffffff1673ffffffffffffffffffffffffffffffffffffffff168152602001908152602001600020600001805490508110156113fc5783600260003373ffffffffffffffffffffffffffffffffffffffff1673ffffffffffffffffffffffffffffffffffffffff168152602001908152602001600020600001828154811061130b5761130a612403565b5b9060005260206000209060040201600101541480156113dc5750600073ffffffffffffffffffffffffffffffffffffffff16600260003373ffffffffffffffffffffffffffffffffffffffff1673ffffffffffffffffffffffffffffffffffffffff168152602001908152602001600020600001828154811061139157611390612403565b5b906000526020600020906004020160000160009054906101000a900473ffffffffffffffffffffffffffffffffffffffff1673ffffffffffffffffffffffffffffffffffffffff1614155b156113e9578091506113fc565b80806113f490612461565b915050611269565b506000600260003373ffffffffffffffffffffffffffffffffffffffff1673ffffffffffffffffffffffffffffffffffffffff168152602001908152602001600020600001828154811061145357611452612403565b5b906000526020600020906004020160020154905060011515600260003373ffffffffffffffffffffffffffffffffffffffff1673ffffffffffffffffffffffffffffffffffffffff16815260200190815260200160002060000183815481106114bf576114be612403565b5b906000526020600020906004020160030160009054906101000a900460ff16151514611520576040517f08c379a000000000000000000000000000000000000000000000000000000000815260040161151790612724565b60405180910390fd5b8092505050919050565b60026020528060005260406000206000915090508060010154908060020154908060030154905083565b60036020528060005260406000206000915054906101000a900473ffffffffffffffffffffffffffffffffffffffff1681565b61158f611b16565b6000600260003373ffffffffffffffffffffffffffffffffffffffff1673ffffffffffffffffffffffffffffffffffffffff1681526020019081526020016000206001015411156116425760006115e533611b65565b905080600260003373ffffffffffffffffffffffffffffffffffffffff1673ffffffffffffffffffffffffffffffffffffffff16815260200190815260200160002060030160008282546116399190612549565b92505081905550505b3373ffffffffffffffffffffffffffffffffffffffff167f000000000000000000000000000000000000000000000000000000000000000073ffffffffffffffffffffffffffffffffffffffff16636352211e836040518263ffffffff1660e01b81526004016116b29190612262565b602060405180830381865afa1580156116cf573d6000803e3d6000fd5b505050506040513d601f19601f820116820180604052508101906116f39190612759565b73ffffffffffffffffffffffffffffffffffffffff1614611749576040517f08c379a0000000000000000000000000000000000000000000000000000000008152600401611740906127d2565b60405180910390fd5b7f000000000000000000000000000000000000000000000000000000000000000073ffffffffffffffffffffffffffffffffffffffff166323b872dd3330846040518463ffffffff1660e01b81526004016117a6939291906125a6565b600060405180830381600087803b1580156117c057600080fd5b505af11580156117d4573d6000803e3d6000fd5b50505050600060405180608001604052803373ffffffffffffffffffffffffffffffffffffffff16815260200183815260200160008152602001600015158152509050600260003373ffffffffffffffffffffffffffffffffffffffff1673ffffffffffffffffffffffffffffffffffffffff16815260200190815260200160002060000181908060018154018082558091505060019003906000526020600020906004020160009091909190915060008201518160000160006101000a81548173ffffffffffffffffffffffffffffffffffffffff021916908373ffffffffffffffffffffffffffffffffffffffff160217905550602082015181600101556040820151816002015560608201518160030160006101000a81548160ff0219169083151502179055505050600260003373ffffffffffffffffffffffffffffffffffffffff1673ffffffffffffffffffffffffffffffffffffffff168152602001908152602001600020600101600081548092919061195390612461565b9190505550336003600084815260200190815260200160002060006101000a81548173ffffffffffffffffffffffffffffffffffffffff021916908373ffffffffffffffffffffffffffffffffffffffff16021790555042600260003373ffffffffffffffffffffffffffffffffffffffff1673ffffffffffffffffffffffffffffffffffffffff168152602001908152602001600020600201819055507f19536721fc002408acc79d9f6211c695c5549614cc6cb03d8dce5299d6fdcd268233600260003373ffffffffffffffffffffffffffffffffffffffff1673ffffffffffffffffffffffffffffffffffffffff1681526020019081526020016000206001016000815480929190611a6790612461565b91905055604051611a7a939291906127f2565b60405180910390a150611a8b611c23565b50565b7f000000000000000000000000000000000000000000000000000000000000000081565b600080600260008473ffffffffffffffffffffffffffffffffffffffff1673ffffffffffffffffffffffffffffffffffffffff16815260200190815260200160002060030154611b0184611b65565b611b0b9190612549565b905080915050919050565b600260005403611b5b576040517f08c379a0000000000000000000000000000000000000000000000000000000008152600401611b5290612875565b60405180910390fd5b6002600081905550565b6000610e10600154600260008573ffffffffffffffffffffffffffffffffffffffff1673ffffffffffffffffffffffffffffffffffffffff16815260200190815260200160002060010154600260008673ffffffffffffffffffffffffffffffffffffffff1673ffffffffffffffffffffffffffffffffffffffff1681526020019081526020016000206002015442611bfe91906124a9565b611c089190612895565b611c129190612895565b611c1c9190612906565b9050919050565b6001600081905550565b611cae8363a9059cbb60e01b8484604051602401611c4c929190612937565b604051602081830303815290604052907bffffffffffffffffffffffffffffffffffffffffffffffffffffffff19166020820180517bffffffffffffffffffffffffffffffffffffffffffffffffffffffff8381831617835250505050611cb3565b505050565b6000611d15826040518060400160405280602081526020017f5361666545524332303a206c6f772d6c6576656c2063616c6c206661696c65648152508573ffffffffffffffffffffffffffffffffffffffff16611d7a9092919063ffffffff16565b9050600081511115611d755780806020019051810190611d35919061298c565b611d74576040517f08c379a0000000000000000000000000000000000000000000000000000000008152600401611d6b90612a2b565b60405180910390fd5b5b505050565b6060611d898484600085611d92565b90509392505050565b606082471015611dd7576040517f08c379a0000000000000000000000000000000000000000000000000000000008152600401611dce90612abd565b60405180910390fd5b6000808673ffffffffffffffffffffffffffffffffffffffff168587604051611e009190612b4e565b60006040518083038185875af1925050503d8060008114611e3d576040519150601f19603f3d011682016040523d82523d6000602084013e611e42565b606091505b5091509150611e5387838387611e5f565b92505050949350505050565b60608315611ec1576000835103611eb957611e7985611ed4565b611eb8576040517f08c379a0000000000000000000000000000000000000000000000000000000008152600401611eaf90612bb1565b60405180910390fd5b5b829050611ecc565b611ecb8383611ef7565b5b949350505050565b6000808273ffffffffffffffffffffffffffffffffffffffff163b119050919050565b600082511115611f0a5781518083602001fd5b806040517f08c379a0000000000000000000000000000000000000000000000000000000008152600401611f3e9190612c26565b60405180910390fd5b6040518060800160405280600073ffffffffffffffffffffffffffffffffffffffff16815260200160008152602001600081526020016000151581525090565b600080fd5b6000819050919050565b611f9f81611f8c565b8114611faa57600080fd5b50565b600081359050611fbc81611f96565b92915050565b600060208284031215611fd857611fd7611f87565b5b6000611fe684828501611fad565b91505092915050565b600073ffffffffffffffffffffffffffffffffffffffff82169050919050565b600061201a82611fef565b9050919050565b61202a8161200f565b811461203557600080fd5b50565b60008135905061204781612021565b92915050565b60006020828403121561206357612062611f87565b5b600061207184828501612038565b91505092915050565b600081519050919050565b600082825260208201905092915050565b6000819050602082019050919050565b6120af8161200f565b82525050565b6120be81611f8c565b82525050565b60008115159050919050565b6120d9816120c4565b82525050565b6080820160008201516120f560008501826120a6565b50602082015161210860208501826120b5565b50604082015161211b60408501826120b5565b50606082015161212e60608501826120d0565b50505050565b600061214083836120df565b60808301905092915050565b6000602082019050919050565b60006121648261207a565b61216e8185612085565b935061217983612096565b8060005b838110156121aa5781516121918882612134565b975061219c8361214c565b92505060018101905061217d565b5085935050505092915050565b600060208201905081810360008301526121d18184612159565b905092915050565b6000819050919050565b60006121fe6121f96121f484611fef565b6121d9565b611fef565b9050919050565b6000612210826121e3565b9050919050565b600061222282612205565b9050919050565b61223281612217565b82525050565b600060208201905061224d6000830184612229565b92915050565b61225c81611f8c565b82525050565b60006020820190506122776000830184612253565b92915050565b60006060820190506122926000830186612253565b61229f6020830185612253565b6122ac6040830184612253565b949350505050565b6122bd8161200f565b82525050565b60006020820190506122d860008301846122b4565b92915050565b60006122e982612205565b9050919050565b6122f9816122de565b82525050565b600060208201905061231460008301846122f0565b92915050565b600082825260208201905092915050565b7f596f752068617665206e6f20746f6b656e73207374616b656400000000000000600082015250565b600061236160198361231a565b915061236c8261232b565b602082019050919050565b6000602082019050818103600083015261239081612354565b9050919050565b7f596f7520646f6e74206f776e2074686973204e46540000000000000000000000600082015250565b60006123cd60158361231a565b91506123d882612397565b602082019050919050565b600060208201905081810360008301526123fc816123c0565b9050919050565b7f4e487b7100000000000000000000000000000000000000000000000000000000600052603260045260246000fd5b7f4e487b7100000000000000000000000000000000000000000000000000000000600052601160045260246000fd5b600061246c82611f8c565b91507fffffffffffffffffffffffffffffffffffffffffffffffffffffffffffffffff820361249e5761249d612432565b5b600182019050919050565b60006124b482611f8c565b91506124bf83611f8c565b92508282039050818111156124d7576124d6612432565b5b92915050565b7f43616e277420776974686472617720666f7220746865206d6f6d656e74000000600082015250565b6000612513601d8361231a565b915061251e826124dd565b602082019050919050565b6000602082019050818103600083015261254281612506565b9050919050565b600061255482611f8c565b915061255f83611f8c565b925082820190508082111561257757612576612432565b5b92915050565b600061258882611f8c565b91506000820361259b5761259a612432565b5b600182039050919050565b60006060820190506125bb60008301866122b4565b6125c860208301856122b4565b6125d56040830184612253565b949350505050565b60006040820190506125f26000830185612253565b6125ff60208301846122b4565b9392505050565b600060608201905061261b6000830186612253565b6126286020830185612253565b61263560408301846122b4565b949350505050565b7f596f752068617665206e6f207265776172647320746f20636c61696d00000000600082015250565b6000612673601c8361231a565b915061267e8261263d565b602082019050919050565b600060208201905081810360008301526126a281612666565b9050919050565b7f4e487b7100000000000000000000000000000000000000000000000000000000600052604160045260246000fd5b7f546865204e465420686173206e6f74206265656e20636c61696d656400000000600082015250565b600061270e601c8361231a565b9150612719826126d8565b602082019050919050565b6000602082019050818103600083015261273d81612701565b9050919050565b60008151905061275381612021565b92915050565b60006020828403121561276f5761276e611f87565b5b600061277d84828501612744565b91505092915050565b7f596f7520646f6e2774206f776e2074686973204e465400000000000000000000600082015250565b60006127bc60168361231a565b91506127c782612786565b602082019050919050565b600060208201905081810360008301526127eb816127af565b9050919050565b60006060820190506128076000830186612253565b61281460208301856122b4565b6128216040830184612253565b949350505050565b7f5265656e7472616e637947756172643a207265656e7472616e742063616c6c00600082015250565b600061285f601f8361231a565b915061286a82612829565b602082019050919050565b6000602082019050818103600083015261288e81612852565b9050919050565b60006128a082611f8c565b91506128ab83611f8c565b92508282026128b981611f8c565b915082820484148315176128d0576128cf612432565b5b5092915050565b7f4e487b7100000000000000000000000000000000000000000000000000000000600052601260045260246000fd5b600061291182611f8c565b915061291c83611f8c565b92508261292c5761292b6128d7565b5b828204905092915050565b600060408201905061294c60008301856122b4565b6129596020830184612253565b9392505050565b612969816120c4565b811461297457600080fd5b50565b60008151905061298681612960565b92915050565b6000602082840312156129a2576129a1611f87565b5b60006129b084828501612977565b91505092915050565b7f5361666545524332303a204552433230206f7065726174696f6e20646964206e60008201527f6f74207375636365656400000000000000000000000000000000000000000000602082015250565b6000612a15602a8361231a565b9150612a20826129b9565b604082019050919050565b60006020820190508181036000830152612a4481612a08565b9050919050565b7f416464726573733a20696e73756666696369656e742062616c616e636520666f60008201527f722063616c6c0000000000000000000000000000000000000000000000000000602082015250565b6000612aa760268361231a565b9150612ab282612a4b565b604082019050919050565b60006020820190508181036000830152612ad681612a9a565b9050919050565b600081519050919050565b600081905092915050565b60005b83811015612b11578082015181840152602081019050612af6565b60008484015250505050565b6000612b2882612add565b612b328185612ae8565b9350612b42818560208601612af3565b80840191505092915050565b6000612b5a8284612b1d565b915081905092915050565b7f416464726573733a2063616c6c20746f206e6f6e2d636f6e7472616374000000600082015250565b6000612b9b601d8361231a565b9150612ba682612b65565b602082019050919050565b60006020820190508181036000830152612bca81612b8e565b9050919050565b600081519050919050565b6000601f19601f8301169050919050565b6000612bf882612bd1565b612c02818561231a565b9350612c12818560208601612af3565b612c1b81612bdc565b840191505092915050565b60006020820190508181036000830152612c408184612bed565b90509291505056fea2646970667358221220d5a18b31bbf9240c4126b47a9636754a69abbb9f45fb78c884b44019acc9744064736f6c63430008110033",
  "linkReferences": {},
  "deployedLinkReferences": {}
}