{
  "_format": "hh-sol-artifact-1",
  "contractName": "ERC721Staking",
  "sourceName": "contracts/NftStacking.sol",
  "abi": [
    {
      "inputs": [
        {
          "internalType": "contract IERC721",
          "name": "_nftCollection",
          "type": "address"
        },
        {
          "internalType": "contract IERC20",
          "name": "_rewardsToken",
          "type": "address"
        }
      ],
      "stateMutability": "nonpayable",
      "type": "constructor"
    },
    {
      "anonymous": false,
      "inputs": [
        {
          "indexed": false,
          "internalType": "uint256",
          "name": "tokenId",
          "type": "uint256"
        },
        {
          "indexed": false,
          "internalType": "uint256",
          "name": "date",
          "type": "uint256"
        },
        {
          "indexed": false,
          "internalType": "address",
          "name": "staker",
          "type": "address"
        }
      ],
      "name": "nftClaimed",
      "type": "event"
    },
    {
      "anonymous": false,
      "inputs": [
        {
          "indexed": false,
          "internalType": "uint256",
          "name": "tokenId",
          "type": "uint256"
        },
        {
          "indexed": false,
          "internalType": "address",
          "name": "staker",
          "type": "address"
        },
        {
          "indexed": false,
          "internalType": "uint256",
          "name": "amountStaked",
          "type": "uint256"
        }
      ],
      "name": "nftStaked",
      "type": "event"
    },
    {
      "anonymous": false,
      "inputs": [
        {
          "indexed": false,
          "internalType": "uint256",
          "name": "tokenId",
          "type": "uint256"
        },
        {
          "indexed": false,
          "internalType": "address",
          "name": "staker",
          "type": "address"
        }
      ],
      "name": "nftWithdraw",
      "type": "event"
    },
    {
      "inputs": [
        {
          "internalType": "address",
          "name": "_staker",
          "type": "address"
        }
      ],
      "name": "availableRewards",
      "outputs": [
        {
          "internalType": "uint256",
          "name": "",
          "type": "uint256"
        }
      ],
      "stateMutability": "view",
      "type": "function"
    },
    {
      "inputs": [],
      "name": "claimRewards",
      "outputs": [],
      "stateMutability": "nonpayable",
      "type": "function"
    },
    {
      "inputs": [
        {
          "internalType": "address",
          "name": "_user",
          "type": "address"
        }
      ],
      "name": "getStakedTokens",
      "outputs": [
        {
          "components": [
            {
              "internalType": "address",
              "name": "staker",
              "type": "address"
            },
            {
              "internalType": "uint256",
              "name": "tokenId",
              "type": "uint256"
            }
          ],
          "internalType": "struct ERC721Staking.StakedToken[]",
          "name": "",
          "type": "tuple[]"
        }
      ],
      "stateMutability": "view",
      "type": "function"
    },
    {
      "inputs": [],
      "name": "nftCollection",
      "outputs": [
        {
          "internalType": "contract IERC721",
          "name": "",
          "type": "address"
        }
      ],
      "stateMutability": "view",
      "type": "function"
    },
    {
      "inputs": [],
      "name": "rewardsToken",
      "outputs": [
        {
          "internalType": "contract IERC20",
          "name": "",
          "type": "address"
        }
      ],
      "stateMutability": "view",
      "type": "function"
    },
    {
      "inputs": [
        {
          "internalType": "uint256",
          "name": "_tokenId",
          "type": "uint256"
        }
      ],
      "name": "stake",
      "outputs": [],
      "stateMutability": "nonpayable",
      "type": "function"
    },
    {
      "inputs": [
        {
          "internalType": "uint256",
          "name": "",
          "type": "uint256"
        }
      ],
      "name": "stakerAddress",
      "outputs": [
        {
          "internalType": "address",
          "name": "",
          "type": "address"
        }
      ],
      "stateMutability": "view",
      "type": "function"
    },
    {
      "inputs": [
        {
          "internalType": "address",
          "name": "",
          "type": "address"
        }
      ],
      "name": "stakers",
      "outputs": [
        {
          "internalType": "uint256",
          "name": "amountStaked",
          "type": "uint256"
        },
        {
          "internalType": "uint256",
          "name": "timeOfLastUpdate",
          "type": "uint256"
        },
        {
          "internalType": "uint256",
          "name": "unclaimedRewards",
          "type": "uint256"
        }
      ],
      "stateMutability": "view",
      "type": "function"
    },
    {
      "inputs": [
        {
          "internalType": "uint256",
          "name": "_tokenId",
          "type": "uint256"
        }
      ],
      "name": "withdraw",
      "outputs": [],
      "stateMutability": "nonpayable",
      "type": "function"
    }
  ],
  "bytecode": "0x60c06040526604ef2fe4dace446001553480156200001c57600080fd5b50604051620022b2380380620022b283398181016040528101906200004291906200017d565b60016000819055508173ffffffffffffffffffffffffffffffffffffffff1660a08173ffffffffffffffffffffffffffffffffffffffff16815250508073ffffffffffffffffffffffffffffffffffffffff1660808173ffffffffffffffffffffffffffffffffffffffff16815250505050620001c4565b600080fd5b600073ffffffffffffffffffffffffffffffffffffffff82169050919050565b6000620000ec82620000bf565b9050919050565b60006200010082620000df565b9050919050565b6200011281620000f3565b81146200011e57600080fd5b50565b600081519050620001328162000107565b92915050565b60006200014582620000df565b9050919050565b620001578162000138565b81146200016357600080fd5b50565b60008151905062000177816200014c565b92915050565b60008060408385031215620001975762000196620000ba565b5b6000620001a78582860162000121565b9250506020620001ba8582860162000166565b9150509250929050565b60805160a0516120ac620002066000396000818161065a01528181610c2101528181610d740152610e6401526000818161086e01526110de01526120ac6000f3fe608060405234801561001057600080fd5b50600436106100935760003560e01c80639168ae72116100665780639168ae721461010c578063940670451461013e578063a694fc3a1461016e578063d1af0c7d1461018a578063f854a27f146101a857610093565b80632e1a7d4d14610098578063372500ab146100b457806363c28db1146100be5780636588103b146100ee575b600080fd5b6100b260048036038101906100ad9190611600565b6101d8565b005b6100bc61073b565b005b6100d860048036038101906100d3919061168b565b6108b5565b6040516100e591906117b4565b60405180910390f35b6100f6610c1f565b6040516101039190611835565b60405180910390f35b6101266004803603810190610121919061168b565b610c43565b6040516101359392919061185f565b60405180910390f35b61015860048036038101906101539190611600565b610c6d565b60405161016591906118a5565b60405180910390f35b61018860048036038101906101839190611600565b610ca0565b005b6101926110dc565b60405161019f91906118e1565b60405180910390f35b6101c260048036038101906101bd919061168b565b611100565b6040516101cf91906118fc565b60405180910390f35b6101e0611164565b6000600260003373ffffffffffffffffffffffffffffffffffffffff1673ffffffffffffffffffffffffffffffffffffffff1681526020019081526020016000206000015411610265576040517f08c379a000000000000000000000000000000000000000000000000000000000815260040161025c90611974565b60405180910390fd5b3373ffffffffffffffffffffffffffffffffffffffff166003600083815260200190815260200160002060009054906101000a900473ffffffffffffffffffffffffffffffffffffffff1673ffffffffffffffffffffffffffffffffffffffff1614610306576040517f08c379a00000000000000000000000000000000000000000000000000000000081526004016102fd906119e0565b60405180910390fd5b6000610311336111b3565b905080600260003373ffffffffffffffffffffffffffffffffffffffff1673ffffffffffffffffffffffffffffffffffffffff16815260200190815260200160002060030160008282546103659190611a2f565b92505081905550600080600090505b600260003373ffffffffffffffffffffffffffffffffffffffff1673ffffffffffffffffffffffffffffffffffffffff168152602001908152602001600020600101805490508110156105075783600260003373ffffffffffffffffffffffffffffffffffffffff1673ffffffffffffffffffffffffffffffffffffffff168152602001908152602001600020600101828154811061041657610415611a63565b5b9060005260206000209060020201600101541480156104e75750600073ffffffffffffffffffffffffffffffffffffffff16600260003373ffffffffffffffffffffffffffffffffffffffff1673ffffffffffffffffffffffffffffffffffffffff168152602001908152602001600020600101828154811061049c5761049b611a63565b5b906000526020600020906002020160000160009054906101000a900473ffffffffffffffffffffffffffffffffffffffff1673ffffffffffffffffffffffffffffffffffffffff1614155b156104f457809150610507565b80806104ff90611a92565b915050610374565b506000600260003373ffffffffffffffffffffffffffffffffffffffff1673ffffffffffffffffffffffffffffffffffffffff168152602001908152602001600020600101828154811061055e5761055d611a63565b5b906000526020600020906002020160000160006101000a81548173ffffffffffffffffffffffffffffffffffffffff021916908373ffffffffffffffffffffffffffffffffffffffff160217905550600260003373ffffffffffffffffffffffffffffffffffffffff1673ffffffffffffffffffffffffffffffffffffffff168152602001908152602001600020600001600081548092919061060090611ada565b919050555060006003600085815260200190815260200160002060006101000a81548173ffffffffffffffffffffffffffffffffffffffff021916908373ffffffffffffffffffffffffffffffffffffffff1602179055507f000000000000000000000000000000000000000000000000000000000000000073ffffffffffffffffffffffffffffffffffffffff166323b872dd3033866040518463ffffffff1660e01b81526004016106b593929190611b03565b600060405180830381600087803b1580156106cf57600080fd5b505af11580156106e3573d6000803e3d6000fd5b5050505042600260003373ffffffffffffffffffffffffffffffffffffffff1673ffffffffffffffffffffffffffffffffffffffff168152602001908152602001600020600201819055505050610738611271565b50565b6000600260003373ffffffffffffffffffffffffffffffffffffffff1673ffffffffffffffffffffffffffffffffffffffff16815260200190815260200160002060030154610789336111b3565b6107939190611a2f565b9050600081116107d8576040517f08c379a00000000000000000000000000000000000000000000000000000000081526004016107cf90611b86565b60405180910390fd5b42600260003373ffffffffffffffffffffffffffffffffffffffff1673ffffffffffffffffffffffffffffffffffffffff168152602001908152602001600020600201819055506000600260003373ffffffffffffffffffffffffffffffffffffffff1673ffffffffffffffffffffffffffffffffffffffff168152602001908152602001600020600301819055506108b233827f000000000000000000000000000000000000000000000000000000000000000073ffffffffffffffffffffffffffffffffffffffff1661127b9092919063ffffffff16565b50565b60606000600260008473ffffffffffffffffffffffffffffffffffffffff1673ffffffffffffffffffffffffffffffffffffffff168152602001908152602001600020600001541115610bc2576000600260008473ffffffffffffffffffffffffffffffffffffffff1673ffffffffffffffffffffffffffffffffffffffff1681526020019081526020016000206000015467ffffffffffffffff8111156109605761095f611ba6565b5b60405190808252806020026020018201604052801561099957816020015b610986611595565b81526020019060019003908161097e5790505b509050600080600090505b600260008673ffffffffffffffffffffffffffffffffffffffff1673ffffffffffffffffffffffffffffffffffffffff16815260200190815260200160002060010180549050811015610bb757600073ffffffffffffffffffffffffffffffffffffffff16600260008773ffffffffffffffffffffffffffffffffffffffff1673ffffffffffffffffffffffffffffffffffffffff1681526020019081526020016000206001018281548110610a5d57610a5c611a63565b5b906000526020600020906002020160000160009054906101000a900473ffffffffffffffffffffffffffffffffffffffff1673ffffffffffffffffffffffffffffffffffffffff1614610ba457600260008673ffffffffffffffffffffffffffffffffffffffff1673ffffffffffffffffffffffffffffffffffffffff1681526020019081526020016000206001018181548110610afe57610afd611a63565b5b90600052602060002090600202016040518060400160405290816000820160009054906101000a900473ffffffffffffffffffffffffffffffffffffffff1673ffffffffffffffffffffffffffffffffffffffff1673ffffffffffffffffffffffffffffffffffffffff168152602001600182015481525050838381518110610b8a57610b89611a63565b5b60200260200101819052508180610ba090611a92565b9250505b8080610baf90611a92565b9150506109a4565b508192505050610c1a565b600067ffffffffffffffff811115610bdd57610bdc611ba6565b5b604051908082528060200260200182016040528015610c1657816020015b610c03611595565b815260200190600190039081610bfb5790505b5090505b919050565b7f000000000000000000000000000000000000000000000000000000000000000081565b60026020528060005260406000206000915090508060000154908060020154908060030154905083565b60036020528060005260406000206000915054906101000a900473ffffffffffffffffffffffffffffffffffffffff1681565b610ca8611164565b6000600260003373ffffffffffffffffffffffffffffffffffffffff1673ffffffffffffffffffffffffffffffffffffffff168152602001908152602001600020600001541115610d5b576000610cfe336111b3565b905080600260003373ffffffffffffffffffffffffffffffffffffffff1673ffffffffffffffffffffffffffffffffffffffff1681526020019081526020016000206003016000828254610d529190611a2f565b92505081905550505b3373ffffffffffffffffffffffffffffffffffffffff167f000000000000000000000000000000000000000000000000000000000000000073ffffffffffffffffffffffffffffffffffffffff16636352211e836040518263ffffffff1660e01b8152600401610dcb91906118fc565b602060405180830381865afa158015610de8573d6000803e3d6000fd5b505050506040513d601f19601f82011682018060405250810190610e0c9190611bea565b73ffffffffffffffffffffffffffffffffffffffff1614610e62576040517f08c379a0000000000000000000000000000000000000000000000000000000008152600401610e59906119e0565b60405180910390fd5b7f000000000000000000000000000000000000000000000000000000000000000073ffffffffffffffffffffffffffffffffffffffff166323b872dd3330846040518463ffffffff1660e01b8152600401610ebf93929190611b03565b600060405180830381600087803b158015610ed957600080fd5b505af1158015610eed573d6000803e3d6000fd5b50505050600060405180604001604052803373ffffffffffffffffffffffffffffffffffffffff168152602001838152509050600260003373ffffffffffffffffffffffffffffffffffffffff1673ffffffffffffffffffffffffffffffffffffffff16815260200190815260200160002060010181908060018154018082558091505060019003906000526020600020906002020160009091909190915060008201518160000160006101000a81548173ffffffffffffffffffffffffffffffffffffffff021916908373ffffffffffffffffffffffffffffffffffffffff160217905550602082015181600101555050600260003373ffffffffffffffffffffffffffffffffffffffff1673ffffffffffffffffffffffffffffffffffffffff168152602001908152602001600020600001600081548092919061103290611a92565b9190505550336003600084815260200190815260200160002060006101000a81548173ffffffffffffffffffffffffffffffffffffffff021916908373ffffffffffffffffffffffffffffffffffffffff16021790555042600260003373ffffffffffffffffffffffffffffffffffffffff1673ffffffffffffffffffffffffffffffffffffffff16815260200190815260200160002060020181905550506110d9611271565b50565b7f000000000000000000000000000000000000000000000000000000000000000081565b600080600260008473ffffffffffffffffffffffffffffffffffffffff1673ffffffffffffffffffffffffffffffffffffffff1681526020019081526020016000206003015461114f846111b3565b6111599190611a2f565b905080915050919050565b6002600054036111a9576040517f08c379a00000000000000000000000000000000000000000000000000000000081526004016111a090611c63565b60405180910390fd5b6002600081905550565b6000610e10600154600260008573ffffffffffffffffffffffffffffffffffffffff1673ffffffffffffffffffffffffffffffffffffffff16815260200190815260200160002060000154600260008673ffffffffffffffffffffffffffffffffffffffff1673ffffffffffffffffffffffffffffffffffffffff168152602001908152602001600020600201544261124c9190611c83565b6112569190611cb7565b6112609190611cb7565b61126a9190611d28565b9050919050565b6001600081905550565b6112fc8363a9059cbb60e01b848460405160240161129a929190611d59565b604051602081830303815290604052907bffffffffffffffffffffffffffffffffffffffffffffffffffffffff19166020820180517bffffffffffffffffffffffffffffffffffffffffffffffffffffffff8381831617835250505050611301565b505050565b6000611363826040518060400160405280602081526020017f5361666545524332303a206c6f772d6c6576656c2063616c6c206661696c65648152508573ffffffffffffffffffffffffffffffffffffffff166113c89092919063ffffffff16565b90506000815111156113c357808060200190518101906113839190611dba565b6113c2576040517f08c379a00000000000000000000000000000000000000000000000000000000081526004016113b990611e59565b60405180910390fd5b5b505050565b60606113d784846000856113e0565b90509392505050565b606082471015611425576040517f08c379a000000000000000000000000000000000000000000000000000000000815260040161141c90611eeb565b60405180910390fd5b6000808673ffffffffffffffffffffffffffffffffffffffff16858760405161144e9190611f7c565b60006040518083038185875af1925050503d806000811461148b576040519150601f19603f3d011682016040523d82523d6000602084013e611490565b606091505b50915091506114a1878383876114ad565b92505050949350505050565b6060831561150f576000835103611507576114c785611522565b611506576040517f08c379a00000000000000000000000000000000000000000000000000000000081526004016114fd90611fdf565b60405180910390fd5b5b82905061151a565b6115198383611545565b5b949350505050565b6000808273ffffffffffffffffffffffffffffffffffffffff163b119050919050565b6000825111156115585781518083602001fd5b806040517f08c379a000000000000000000000000000000000000000000000000000000000815260040161158c9190612054565b60405180910390fd5b6040518060400160405280600073ffffffffffffffffffffffffffffffffffffffff168152602001600081525090565b600080fd5b6000819050919050565b6115dd816115ca565b81146115e857600080fd5b50565b6000813590506115fa816115d4565b92915050565b600060208284031215611616576116156115c5565b5b6000611624848285016115eb565b91505092915050565b600073ffffffffffffffffffffffffffffffffffffffff82169050919050565b60006116588261162d565b9050919050565b6116688161164d565b811461167357600080fd5b50565b6000813590506116858161165f565b92915050565b6000602082840312156116a1576116a06115c5565b5b60006116af84828501611676565b91505092915050565b600081519050919050565b600082825260208201905092915050565b6000819050602082019050919050565b6116ed8161164d565b82525050565b6116fc816115ca565b82525050565b60408201600082015161171860008501826116e4565b50602082015161172b60208501826116f3565b50505050565b600061173d8383611702565b60408301905092915050565b6000602082019050919050565b6000611761826116b8565b61176b81856116c3565b9350611776836116d4565b8060005b838110156117a757815161178e8882611731565b975061179983611749565b92505060018101905061177a565b5085935050505092915050565b600060208201905081810360008301526117ce8184611756565b905092915050565b6000819050919050565b60006117fb6117f66117f18461162d565b6117d6565b61162d565b9050919050565b600061180d826117e0565b9050919050565b600061181f82611802565b9050919050565b61182f81611814565b82525050565b600060208201905061184a6000830184611826565b92915050565b611859816115ca565b82525050565b60006060820190506118746000830186611850565b6118816020830185611850565b61188e6040830184611850565b949350505050565b61189f8161164d565b82525050565b60006020820190506118ba6000830184611896565b92915050565b60006118cb82611802565b9050919050565b6118db816118c0565b82525050565b60006020820190506118f660008301846118d2565b92915050565b60006020820190506119116000830184611850565b92915050565b600082825260208201905092915050565b7f596f752068617665206e6f20746f6b656e73207374616b656400000000000000600082015250565b600061195e601983611917565b915061196982611928565b602082019050919050565b6000602082019050818103600083015261198d81611951565b9050919050565b7f596f7520646f6e2774206f776e207468697320746f6b656e2100000000000000600082015250565b60006119ca601983611917565b91506119d582611994565b602082019050919050565b600060208201905081810360008301526119f9816119bd565b9050919050565b7f4e487b7100000000000000000000000000000000000000000000000000000000600052601160045260246000fd5b6000611a3a826115ca565b9150611a45836115ca565b9250828201905080821115611a5d57611a5c611a00565b5b92915050565b7f4e487b7100000000000000000000000000000000000000000000000000000000600052603260045260246000fd5b6000611a9d826115ca565b91507fffffffffffffffffffffffffffffffffffffffffffffffffffffffffffffffff8203611acf57611ace611a00565b5b600182019050919050565b6000611ae5826115ca565b915060008203611af857611af7611a00565b5b600182039050919050565b6000606082019050611b186000830186611896565b611b256020830185611896565b611b326040830184611850565b949350505050565b7f596f752068617665206e6f207265776172647320746f20636c61696d00000000600082015250565b6000611b70601c83611917565b9150611b7b82611b3a565b602082019050919050565b60006020820190508181036000830152611b9f81611b63565b9050919050565b7f4e487b7100000000000000000000000000000000000000000000000000000000600052604160045260246000fd5b600081519050611be48161165f565b92915050565b600060208284031215611c0057611bff6115c5565b5b6000611c0e84828501611bd5565b91505092915050565b7f5265656e7472616e637947756172643a207265656e7472616e742063616c6c00600082015250565b6000611c4d601f83611917565b9150611c5882611c17565b602082019050919050565b60006020820190508181036000830152611c7c81611c40565b9050919050565b6000611c8e826115ca565b9150611c99836115ca565b9250828203905081811115611cb157611cb0611a00565b5b92915050565b6000611cc2826115ca565b9150611ccd836115ca565b9250828202611cdb816115ca565b91508282048414831517611cf257611cf1611a00565b5b5092915050565b7f4e487b7100000000000000000000000000000000000000000000000000000000600052601260045260246000fd5b6000611d33826115ca565b9150611d3e836115ca565b925082611d4e57611d4d611cf9565b5b828204905092915050565b6000604082019050611d6e6000830185611896565b611d7b6020830184611850565b9392505050565b60008115159050919050565b611d9781611d82565b8114611da257600080fd5b50565b600081519050611db481611d8e565b92915050565b600060208284031215611dd057611dcf6115c5565b5b6000611dde84828501611da5565b91505092915050565b7f5361666545524332303a204552433230206f7065726174696f6e20646964206e60008201527f6f74207375636365656400000000000000000000000000000000000000000000602082015250565b6000611e43602a83611917565b9150611e4e82611de7565b604082019050919050565b60006020820190508181036000830152611e7281611e36565b9050919050565b7f416464726573733a20696e73756666696369656e742062616c616e636520666f60008201527f722063616c6c0000000000000000000000000000000000000000000000000000602082015250565b6000611ed5602683611917565b9150611ee082611e79565b604082019050919050565b60006020820190508181036000830152611f0481611ec8565b9050919050565b600081519050919050565b600081905092915050565b60005b83811015611f3f578082015181840152602081019050611f24565b60008484015250505050565b6000611f5682611f0b565b611f608185611f16565b9350611f70818560208601611f21565b80840191505092915050565b6000611f888284611f4b565b915081905092915050565b7f416464726573733a2063616c6c20746f206e6f6e2d636f6e7472616374000000600082015250565b6000611fc9601d83611917565b9150611fd482611f93565b602082019050919050565b60006020820190508181036000830152611ff881611fbc565b9050919050565b600081519050919050565b6000601f19601f8301169050919050565b600061202682611fff565b6120308185611917565b9350612040818560208601611f21565b6120498161200a565b840191505092915050565b6000602082019050818103600083015261206e818461201b565b90509291505056fea2646970667358221220b9696f66aa768c55edecbfb8fa821056b89f06ab7a2cde9a1bed1eb7e5751ce964736f6c63430008110033",
  "linkReferences": {},
  "deployedLinkReferences": {}
}